:02000004080AE8
:1000000000000A083C5F0A08000005000600050120
:080010000402EA0300000000F5
:1000180064580A0809480A4908B5884205D0094AB7
:10002800824202D0121A04F066FF0748074A0021EC
:10003800121A04F06BFF064808BD00BF0003002039
:10004800545E0A08C0030020C0030020F4100020FA
:10005800F410002070B503F035FD074B074C1E4621
:10006800E41AA4080025A54204D056F8253098477C
:100078000135F8E770BD00BFA45D0A08445E0A08B0
:1000880000F032BA08B500F04DFABDE8084003F0B8
:10009800DBBC03F095B903F09BB90078B0FA80F0A7
:1000A800400970470123037070470000C3781BB3F1
:1000B800174BDA684378D243C2F30222C2F1040133
:1000C800C9B28B40D9B20F2313418278134002780A
:1000D8000B431B0102F16042DBB202F5614282F878
:1000E800003303780122590903F01F0302FA03F3CE
:1000F800084A42F821307047037801215A0903F071
:100108001F03994002F12003024A42F82310704766
:1001180000ED00E000E100E0044B1A6C09B1104367
:1001280001E022EA00001864704700BF003802406E
:10013800044B1A6A09B1104301E022EA0000186270
:10014800704700BF00380240044B5A6A09B1104397
:1001580001E022EA00005862704700BF0038024000
:1001680008B5474B984205D101200146FFF7ECFF3F
:1001780001203DE0B0F1804F05D101200146FFF795
:10018800D7FF012076E03F4B984205D1022001219C
:10019800FFF7CEFF02206DE03B4B984205D10420CB
:1001A8000121FFF7C5FF042064E0384B984205D1D0
:1001B80008200121FFF7BCFF08205BE0344B984280
:1001C80005D110200121FFF7B3FF102052E0314B79
:1001D800984205D120200121FFF7AAFF202049E0FD
:1001E8002D4B984209D102200121FFF7ADFF0220D3
:1001F8000021BDE80840FFF7A7BF284B984207D168
:100208004FF480300121FFF79FFF4FF48030EFE774
:10021800234B984207D14FF400300121FFF794FF98
:100228004FF40030E4E71F4B984207D14FF4802089
:100238000121FFF789FF4FF48020D9E71A4B984234
:1002480005D140200121FFF773FF402012E0174B32
:10025800984205D180200121FFF76AFF802009E03C
:10026800134B98420BD14FF480700121FFF760FFC8
:100278004FF480700021BDE80840FFF759BF08BD62
:10028800000001400004004000080040000C00404D
:1002980000100040001400400004014000400140EC
:1002A800004401400048014000180040001C004084
:1002B800002000401C4A038890429BB212D002F5ED
:1002C800806290420ED0B0F1804F0BD0A2F5803200
:1002D800904207D002F58062904203D002F5806216
:1002E800904203D14A8823F0700313430F4A904287
:1002F80008D002F5806290421FBF23F440730A8938
:100308009BB2134303804B68C3620B880385064B7B
:10031800984203D003F58063984201D18B7A038613
:1003280001238382704700BF000001400010004095
:10033800038819B19BB243F0010303E023F00103E2
:100348001B041B0C0380704783899BB20AB11943B5
:1003580001E023EA010181817047038A828911EA59
:10036800030092B203D0114214BF0120002070474D
:10037800C94389B20182704720B94FF47A710248A3
:1003880000F0FABC704700BFC40300201FB50DF190
:10039800100E0EE90F00009B192B0BD10020FFF760
:1003A800EBFF9DF80820094B1A609DF80920084BBF
:1003B8001A6008E0203B012B05D8002005B05DF845
:1003C80004EBFFF7D9BF05B05DF804FBE80900208E
:1003D800E409002002F0CEBD014B01221A707047DB
:1003E8003804002003681847012A02D0022A02D0E4
:1003F80004E0016002E00B6800B103600020704770
:1004080010B5044602F0AAFD204610BD10B5836859
:10041800044613B1032201469847204610BD000048
:100428007FB53B22428047F22F5282804FF6FF72FF
:10043800C280254A002303700372137053709370AF
:10044800D370137103780446002B3AD101231F4E51
:100458001F4D03701F4B69461320009303960295A6
:1004680003F068FC6846FFF7D1FF1B4B69461A206A
:1004780000930396029503F05DFC6846FFF7C6FFFC
:10048800164B6946212000930396029503F052FC0F
:100498006846FFF7BBFF124B69462420009303967A
:1004A800029503F047FC6846FFF7B0FF0D4B69461D
:1004B800262000930396029503F03CFC6846FFF75C
:1004C800A5FF204604B070BD180B0020ED030A08F4
:1004D800F1030A087D2C0A08A52C0A08CD2C0A0865
:1004E800F52C0A081D2D0A0807B503F0A9FB4FF4DF
:1004F800165103F08BFB41F286330848C2889A42B2
:1005080007D9FF23009341F287320023044902F000
:10051800EFFC03B05DF804EB00F0F2BADC03002056
:10052800E1030A0838B502F0ADFD624D04462B68B8
:10053800DB0706D42846FFF7B0FD10B12846FFF7C1
:10054800B1FD5D4D2B68D80706D42846FFF7A5FDF9
:1005580010B12846FFF7A6FD584D2B68D90706D4D9
:100568002846FFF79AFD10B12846FFF79BFD544D2A
:100578002B68DA0706D42846FFF78FFD10B1284606
:10058800FFF790FD4F4D2B68DB0706D42846FFF791
:1005980084FD10B12846FFF785FD4B4D2B68D80721
:1005A80008D42846FFF779FD20B1484B28461C603F
:1005B800FFF778FD464D2B68D90708D42846FFF782
:1005C8006CFD20B1434B28461C60FFF76BFD424D84
:1005D8002B68DA0708D42846FFF75FFD20B13F4BA8
:1005E80028461C60FFF75EFD3D4D2B68DB0708D4ED
:1005F8002846FFF752FD20B13A4B28461C60FFF70A
:1006080051FD394B1B68012B01D100F055FB374BCD
:100618001A78002A4DD000221A70354D354B1C60CF
:100628002B6801332B6000F06CFA2B68D80703D5D0
:10063800BDE8384000F067BA990703D5BDE83840EF
:1006480000F062BA5A0703D5BDE8384000F05EBA38
:100658001B0703D5BDE8384000F09EBA1B4A136853
:10066800E31A9F2B04D91460BDE8384000F095BA0E
:10067800184A1368E31AB3F5A07F04D31460BDE8E1
:10068800384000F08BBA154A1368E31AB3F5207F97
:1006980004D31460BDE8384000F081BA114A1368E9
:1006A800E31AB3F5A06F04D31460BDE8384000F036
:1006B80077BA38BD1C04002020040020EC03002079
:1006C80008040020D8030020F8030020F0030020CD
:1006D800040400200004002044040020D00300206B
:1006E800F403002024040020D40300203804002050
:1006F80040040020FC030020F8B5144D02F03AFC39
:100708000021012002F010FE114C2846FFF788FE58
:10071800104F2846104D2246104903F0CDFC104ECC
:100728003946284602F0B1FF28460E4D224631468A
:1007380003F0C2FC3946284602F0A7FF224631469C
:100748002846BDE8F84003F0B7BC00BFDC03002032
:10075800C0030020065A0A080C04002009040A08ED
:1007680005360A08280400207047F8B50E460746E3
:1007780003F00CF9054603F001F9044603F0F4F818
:100788006401C0B2ADB204F4FF54A5F2BC750443D1
:1007980044EA45243C8003F0C9F8054603F0D0F844
:1007A800044603F0D7F8ED02640105F4FF2504F4CC
:1007B800FF542C43C0F3460004433480F8BD0000C6
:1007C8007FB5024613790846956833B13DB90C499F
:1007D80004B0BDE8704002F0ACBF0A4B00E00A4B21
:1007E800167B0A4C0A49527B012E08BF2146029209
:1007F80001910095074A002102F0E4FF04B070BDA2
:10080800AD580A08065A0A089C580A08A5580A0842
:10081800A9580A08C3580A0810B50446FFF73BFC54
:10082800204610BD083001F0BBBC07B502AB03F889
:10083800011D01221946083001F0B2FC03B05DF831
:1008480004FB000000B5E5B000234FF4C872694608
:10085800034801F00DFB012065B05DF804FB00BF03
:100868005004002008B506490268002309680548B5
:1008780001F047FC18B1BDE80840FFF7E3BF08BD29
:10088800F40A0020500400201FB50B490B4802F061
:1008980029FF0B4B1B685BB10849684602F017FF3C
:1008A8006846FFF7DFFF074B1860684602F0A6FEB0
:1008B80005B05DF804FB00BFE1580A08C004002039
:1008C800D00400203C04002018B9074B07481968D9
:1008D80007E0022807D8064B53F82010034B03EB18
:1008E800C00000F049BA704700030020000500204E
:1008F80008590A0870B53B4A9CB03B4B3B496846CF
:100908001A6002F0C2FE394904A802F0BEFE374957
:1009180008A802F0BAFE36490CA802F0B6FE334920
:1009280010A802F0B2FE314914A802F0AEFE314D13
:10093800002405EBC40000F0F5F9E0B20134FFF73C
:10094800C3FF032CF5D12C4B2C4C2D4A189304F5DE
:100958008C6600238DF864301A9201258DF86D306D
:100968000C2218AB04F26C4130468DF86C5001F043
:100978005DFF00B3266004F23C4001F0BBFB294652
:10098800204601F0FCFD014680B11C4C04F23C45B8
:100998002146284601F0A1F968B194F83C3413F0D7
:1009A800700316BF174B18461D6005E0204601F07E
:1009B800E6FD0028E9D10020134B186014A802F0C6
:1009C8001DFE10A802F01AFE0CA802F017FE08A8D7
:1009D80002F014FE04A802F011FE684602F00EFEB2
:1009E8001CB070BD73070A08F80A0020065A0A08E6
:1009F800FB580A080005002080580A08180500203E
:100A080000093D00F40A0020D0040020F8B502F0E7
:100A1800B1FA2D4B642283F860242C4A2C4DC3F87C
:100A28007024012283F874242A482B4E2B4A002470
:100A38002B4FDC7183F83C4483F83D4483F86A44C7
:100A4800C3F8784483F87C4483F87D44C3F86C2465
:100A580031462A46047244724460076003F02CFB56
:100A680020482A463146047244724460076003F005
:100A780023FB1D48314607601C4E1D4F2A46047251
:100A88004472446003F018FB1A4C3146384602F0B1
:100A9800FCFD3846184F2A46214603F00DFB314627
:100AA800384602F0F2FD3846144F2A46214603F034
:100AB80003FB3146384602F0E8FD2A46214638460F
:100AC800BDE8F84003F0F8BA1805002080580A0875
:100AD800C00300207404002071070A08D40F002006
:100AE8008C580A0848040020D4040020065A0A0832
:100AF800B004002005360A08C0040020A004002025
:100B0800704700F023B9704770470000F8B51C48DB
:100B18001C4F01681C4C3A68013101601B490132C5
:100B28002368182A0D683A6003F10103C8BF002240
:100B380005F10105C8BF3A60312B23600D602646D8
:100B480005460C460EDD124F3B684BB9FFF7D2FE47
:100B5800104B1868FFF798FE00F082F801233B60FD
:100B6800002333602B687C2BC2BF054B00221A6020
:100B78002368B3F5BB7FC2BF044B00221A60F8BDDF
:100B8800A40900209C090020A0090020A809002031
:100B9800D4030020CC03002070477047704770478B
:100BA800704702F0E7B90000062807D8044B53F84D
:100BB8002010044B03EBC00000F0DEB8704700BF04
:100BC80014590A08AC09002038B5084D002405EB73
:100BD800C40000F0A7F8E0B20134FFF7E5FF072CE6
:100BE800F5D1BDE8384000F015B800BFAC090020C9
:100BF80002F0C0B9012807D8044B53F82010044B61
:100C080003EBC00000F0B8B8704700BF30590A08BD
:100C1800EC09002010B50E4C03F0FCF84FF4165107
:100C2800002203F0EDF8204600F07CF80020FFF7E2
:100C3800E1FF04F1080000F075F80120FFF7DAFF82
:100C480003F0E8F8BDE81040024902F085BD00BF96
:100C5800EC090020065A0A0802F08CB97047000017
:100C680010B5084C0121204600F09FF9204606499E
:100C780000F026F9FFF7A8FF2046BDE8104000F075
:100C880022B900BFFC09002090D0030010B5064C23
:100C980002F070F9204600F0FFF82046BDE8104049
:100CA800024A034903F008BAFC090020C0030020E7
:100CB800650C0A0802F05EB9F0B5002385B0102271
:100CC80000938DF805308DF806308DF807300293C3
:100CD80003938DF8042002F022FE0E4C064623688A
:100CE80003B920600C4800F0EDF8694603F009F9F3
:100CF8000A4F30B101233B609DE80F00FFF746FB28
:100D080004E02368F61A052EC8BF3860386805B0B5
:100D1800F0BD00BFEC0A0020FC09002004030020FD
:100D280002F028B9084A136813B91060436007E055
:100D38005A681AB182421346FAD170475860426025
:100D48006FF0004303607047F00A0020094B4FF032
:100D580000401B6863B11A683AB102F100410131E1
:100D6800012903D9013A1A6000E018605B68F1E7CD
:100D7800704700BFF00A00200523B1FBF3F10160C2
:100D8800704702F0F7B8012A02D0022A02D004E024
:100D9800016002E008B10B6803600020704710B5DD
:100DA80001230374836804460BB1C06806E0006839
:100DB80028B183680BB903F09CF9C36898470123ED
:100DC80063740020BDE8104002F0BCB92DE9FF4172
:100DD80006460F4614202E491546984603F07AF920
:100DE800044630B100230374036043608360C3602A
:100DF80043743460002C38D02549102003F06AF978
:100E08000346B0B10022826002AA95E8030082E896
:100E1800030093E8030085E8030092E8030083E8F1
:100E280003009968AA68A9609A60EA68D968E960C5
:100E3800DA60256823602DB12846FFF7E7FA2846CF
:100E4800FFF729F9306803687BB10A9B42468DE8B1
:100E5800090039460F4B043002F034F928B93368D9
:100E68001B7C8BB902F036F9F9E73468002333604C
:100E780054B125682DB12846FFF7C8FA2846FFF770
:100E88000AF92046FFF707F9304604B0BDE8F081BB
:100E9800A45B0A08A70D0A0810B5044620231A46C1
:100EA800002103F01FF8054B04F10C0063600023D8
:100EB800A36000F0C8F8204610BD00BF20A10700BD
:100EC80041607047704710B504460121002003F0C7
:100ED80057F80021084603F064F861682046BDE829
:100EE8001040002203F009B830B5044687B001214C
:100EF8000A2003F045F801210A2003F052F802F015
:100F080089FF4FF4165102F07FFFA368ABB90C4B71
:100F1800042005930B4B02940493FFF7BAF8054697
:100F280038B14FF44063009302AA02230649FFF741
:100F38004DFFA56002A8FFF769FA07B030BD00BFF2
:100F480041100A088F0D0A0893590A0808B50B20A2
:100F580003F040F803F012FD054903F063FD4FF07C
:100F6800665103F05FFD034903F05CFD08BD00BF57
:100F7800333353406666E64010B5044600210B2023
:100F880002F0FEFF2046FFF7E1FF10BD90F8EC00ED
:100F980000F00100704790F8EC00C0F34000704783
:100FA80090F8EC00C0F38000704710B580F8EC10A2
:100FB8000446FFF7EBFF10B12046FFF784FF2046F9
:100FC800FFF7E9FF10B12046FFF78EFF2046FFF735
:100FD800E7FF10B12046FFF7CFFF10BD70B50446FC
:100FE80000F10C0600F1E405D4F8E43013B9284602
:100FF80002F090F8D4F8E40002F094F802F00AFF46
:1010080003681B69984748B102F004FF03685B69ED
:101018009847C1B2304600F08FFAEFE7D4F8E430D1
:1010280013B9284602F076F8D4F8E40002F082F802
:10103800012002F0BFFCD7E708B50068FFF7CEFF34
:1010480008BD01F097BF0022022102704270828021
:10105800826002730282426102768283026280F8B1
:1010680024200285C26280F8302080F8382080F879
:101078003920C26380F8482080F84920C26480F88B
:10108800582080F85920026680F8682080F8692086
:10109800026780F8782080F87920C0F8802080F8EE
:1010A800882080F88920C0F8902080F8982080F85F
:1010B8009920C0F8A02080F8A82080F8A92080F8FE
:1010C800B91080F8BA2080F8BB2080F8BC20C0F89E
:1010D800C020C0F8C420C0F8C820C0F8CC20C0F890
:1010E800D020C0F8D42080F8AA207047A1F141038D
:1010F800052B02D8A1F137007047A1F16103052B38
:1011080094BFA1F15700A1F13000704738B50446EB
:1011180005782D2D08BF0134204603F0D3FD642344
:101128005843224614F8013BA3F130010929F8D9A4
:101138002E2B0BD15378303B092B07D80A2101FB02
:1011480003009378303B092B98BFC0182D2D08BF9A
:10115800404238BD38B504460D4603F0B3FD64235C
:10116800B0FBF3F203FB1200114B2A8043432046E5
:1011780002780446A2F13001092900F10100F7D9EB
:101188002E2A0BD10A490A2014F8012F303A092ACD
:1011980004D8B1FBF0F101FB0233F5E703EB83035D
:1011A80001330322B3FBF2F36B6000232B7238BDCB
:1011B80080969800034610B553F81C2F04464260E9
:1011C8005A6882601B7A0373034653F8282F02611A
:1011D8005A6842611B7A037601F054FF0123606369
:1011E80063702370208A03F021FA0022002303F0A1
:1011F800D9FA38B9A08803F019FA0022002303F0BD
:10120800D1FA08B10023237010BD10B583680446D5
:10121800436001F037FF0123637023706368E06067
:1012280003B9237010BD10B583680446436001F00C
:1012380029FF0123637023706368E06003B923709A
:1012480010BD10B504460846FFF760FFA06010BD4A
:1012580010B50446084603F035FDA06010BD10B572
:10126800C3680446836001F00DFF0123606063706A
:10127800237010BD10B504460846FFF747FFE0602D
:1012880010BD10B5C3680446836001F0FBFE01235E
:1012980060606370237010BD10B50446084603F003
:1012A80011FDE06010BD10B501460446103003F092
:1012B80075FE01F0E7FE0123206284F8253084F8EA
:1012C800243010BD102203F08EBE0000F8B590F84F
:1012D800A9500446002D6BD090F8AA10FFF706FF1E
:1012E80094F8AB1002462046FFF700FF94F8A830A8
:1012F80000EB0210C0B2834253D1D4F8D43001338A
:10130800C4F8D43094F8BC3023B1D4F8CC300133CD
:10131800C4F8CC3094F8B930C3B1012B2ED104F104
:101328003800FFF772FF04F14800FFF77CFF94F8DC
:10133800BC3084F8BD300BB32046FFF73BFF04F107
:101348005800FFF78CFF04F1680015E004F148002D
:10135800FFF769FF94F8BC3084F8BD3033B12046FC
:10136800FFF728FF04F17800FFF779FF04F1880000
:10137800FFF787FF04F19800FFF771FFD4F8C46006
:10138800002E00F0CE80D4F8C430B06A996A03F019
:10139800FBFD002840F0C5803046FFF784FF366B20
:1013A800EEE7D4F8D03000250133C4F8D030B8E0E7
:1013B80090F8BA2072BB00F1AA065B49304603F0E8
:1013C800E3FD20B15949304603F0DEFD08B9012399
:1013D8000CE05749304603F0D7FD20B15549304657
:1013E80003F0D2FD08B9002300E0022384F8B930E5
:1013F800D4F8C030C4F8C430D4F8C470002F00F05A
:1014080090803146B86A03F0BFFD002880F28580DD
:101418003B6BEFE790F8B910022966D090F8AA3034
:10142800002B62D042EA4112013A282A5DD8DFE84F
:1014380002F01520232A31464D53575C5C5C5C5CF6
:101448005C5C5C5C5C5C5C5C5C5C5C5C5C5C5C5CD4
:101458005C5C151B20232A31383C400000F1AA01AE
:101468004830FFF7EEFE40E0A3F14100434243411C
:1014780029E000F11C0108E0A3F153014B424B4164
:1014880080F8243031E000F1280104F1AA00FFF7C8
:1014980061FE2AE0A3F157025342534180F83030ED
:1014A80023E000F1AA0158301DE000F1AA016830DC
:1014B80019E000F1AA013830FFF7CAFE15E0302B19
:1014C80094BF0023012384F8BC300EE000F1AA0188
:1014D8008830FFF7E1FE08E000F1AA01983002E049
:1014E80000F1AA017830FFF7C5FED4F8C46004F112
:1014F800AA07B6B1D4F8C430B06A996A03F044FDBB
:1015080078B9F26A94F8BA309A420ADC03D13946BB
:101518003046FFF7D7FE366BEBE702D00023C4F85E
:10152800C4302846F8BD00BF9E590A08A4590A08C5
:10153800AA590A08B0590A0838B5D0F8C830242979
:1015480003F1010304460D46C0F8C8302AD090F8CC
:10155800BB3004D80A290CD00D2932D109E02A2938
:1015680007D02C292DD190F8A82082F02C0280F8E1
:10157800A8200E2B4FF0000005D8234483F8AA00BA
:101588002046FFF7A3FE94F8BA30013384F8BA3046
:10159800002384F8BB30A5F12A035D425D4184F83D
:1015A800A95038BD0020022384F8BB0084F8BA0093
:1015B80084F8A80084F8B93084F8A90084F8BC003D
:1015C80038BD0D2B9FBF5A1C1B1984F8BB2083F80C
:1015D800AA5094F8A90028B994F8A8104D4084F8A6
:1015E800A85038BD002038BD01F0C4BC01F0C2BC11
:1015F80001F0C0BC10B50446243000F0B1FE28B19B
:1016080004F50C70BDE8104000F0AABE10BD411EE4
:1016180000F10A020020430843EAC01011F8013F14
:1016280018448A4200F0FF00F5D170472DE9F047D1
:101638000378441C202B01D12046F9E70546704F5A
:1016480088602C1A2E4615F8013B0BB32F2B01D1BD
:10165800031917E05C2B02D10020BDE8F087A3F145
:101668002204E4B21D2C03D827FA04F4E407F3D4C7
:1016780003F0BF043C2CEFD0203B5E2BE1D9EBE715
:101688002F2D05D11E4613F8015B202DF8D1F9E75F
:10169800166003199842C0EB030809D013F8012D0E
:1016A8002E2AF7D0202AF5D0B8F1FF0FD4DC01E0BC
:1016B8004FF00008C1F8048001F10C0301F1170292
:1016C800202403F8014F9342FBD103461A1A13F85A
:1016D800014B2E2CFAD0202CF8D0B2FA82F408F163
:1016E800FF366409731C07D100274FF0070E3D46EB
:1016F800BA464FF0080909E0835D2E2BF4D0013E6D
:10170800F0E7835C202B04D1002401324245F8DB4A
:101718004BE02E2B02D1B242F6D103E0222B17D098
:101728007C2B15D0A3F12A0CBCF1050F01D82D2B69
:101738000ED1A3F13A0CBCF1050F09D9A3F15B0C4A
:10174800BCF1020F04D9A3F1210CBCF15D0F02D941
:10175800B2420ED149E0B24247D0754521D8A3F133
:10176800610CBCF1190F08D8203BDBB249EA070726
:101778000AE0754515D800245F23A3F1410CBCF19C
:10178800190F98BF49EA0A0A05F1010C5FFA8CFCA7
:101798000D44BCF1060F6B7301D881F80CC0654687
:1017A800B3E7BEF10A0F17D100244B7B202B3FF47F
:1017B80053AF3CB11AEA070F18BF02270F70012078
:1017C800BDE8F0870B7B0120087019447E234B731A
:1017D80031238B73BDE8F087B242E5DC32464FF027
:1017E8000A0E08254FF010098EE7BEF10A0FDBD06C
:1017F80032464FF00A0E08254FF0100985E700BF62
:10180800010100312DE9F84306460D4691F80C9088
:1018180002247E2701F10D086968AA6863189BB243
:101828001144914206D012F8010B03EB43134340D5
:101838009BB2F6E7B9F1030F28BF4FF0030909F18E
:101848000402D2B203F00F01A818013A0929D2B252
:1018580094BF30313731914541734FEA1313F1D3B7
:1018680005EB09035F730021304600F056FB0121A8
:10187800304600F035FB014628B97078B0FA80F0A0
:101888004009BDE8F88303784BB1C37A1B07EED44F
:101898000B22404603F020FB0028E8D102E001209B
:1018A800BDE8F8830134A4B2642CB5D1BDE8F8834F
:1018B8002DE9F04F9B460B7889B013F0700F059017
:1018C8000E46914601D10020A0E1059B1B78002B14
:1018D800F9D15368029313789B0700F08D81029B1E
:1018E8000D270C33B3FBF7F70137FFB24FF00008B1
:1018F8000021304600F011FB44464346454609F1B5
:101908000D02CDF80C80CDF8108006927269012185
:1019180030460793C2F34F1A00F0E2FA079B20B94A
:101928007378002B00F09080CDE70278E52A00D08C
:1019380042B9002C08BFD046BC423CBF0134E4B2D7
:1019480022B981E0BC4238BF002403E0E52A01D176
:101958000025DBE72E2AFBD0C17A0F2952D13DB9E9
:101968005106D3D5437B02F01F0503932B4607E0AE
:10197800013BDBB29A42EBD1427B03999142E7D11A
:101988005A1E4FF00D0C0CFB02FC029A6245DFD97F
:101998004FF0000EBEF1040F5FFA8EF204D800EB90
:1019A8004E02B2F801200CE00A2A95BF0EF1FF3270
:1019B8000EF1010200EB420200EB420294BFD28812
:1019C80092880299614503D1002A18BF00259DE736
:1019D800FF2ABDD8D2B2A2F141011929D9F80810BD
:1019E80098BF203211F80C100CF1010AA1F1410C3A
:1019F80098BFD2B2BCF1190F9CBF2031C9B2914235
:101A0800A6D1FBE00907A3D44DB1012B7FF45BAF4E
:101A1800FFF7FDFD039B83427FF455AF0FE00B22D8
:101A28000699079303F058FA079B00287FF46EAFD6
:101A380099F80020D20702D50122049266E71BF428
:101A4800006F00F0D1803EE71BF4007F3FF43BAF0E
:101A58000BF00303013B012B3FF635AF002C08BF09
:101A6800D046BC4202D3049BCBB91FE000213046CC
:101A780000F036FA10B973785BB124E70134E4B2A8
:101A8800EFE7B3681B79012BEDD81034E4B2A74215
:101A9800E9D9304600F0D2F80028F2D113E74946D8
:101AA8003046FFF7AFFE00283FF40DAF4FEA48116C
:101AB800304600F032FA00283FF405AF7D1EEDB243
:101AC8002C464FF0000A4FF00F0841E00021304645
:101AD80000F006FA074600283FF4F5AEB268AC42BB
:101AE80092F8243043F0010382F8243014BF2246D0
:101AF80044F04002027080F80B8080F80CA009F1D5
:101B08000D000392FFF783FD039A787387F81AA0F4
:101B180087F81BA002F01F020D23013AD9F808E04C
:101B28005A4300230299914215D91EF80210042B3A
:101B38005FFA83FC03F1010013D807EB4303A3F812
:101B480001100D2802F101020346EBD1013CE4B279
:101B5800002CBBD10EE014BF4FF0FF31002189B239
:101B6800E5E7BCF10A0F94BF07EB430307EB40031B
:101B78009980E6E7736921463046C3F34F1A00F0AF
:101B8800AFF9074600283FF49EAE2022214603F015
:101B9800BDF94B4653F80D2F3A605A687A601A8996
:101BA8003A819B7ABB7299F8003003F018033B73B3
:101BB800184B1B682BB107F10E0107F1100098476D
:101BC80006E021233B7428237B740823BC73FB7332
:101BD8003B8A7B823B83FB89FB82B26892F8243084
:101BE80043F0010382F8243000955B4652463146A3
:101BF800059800F0DBF909E0012777E60EF1010E00
:101C0800BEF10D0F3FF482AED446C3E609B0BDE87D
:101C1800F08F00BFF80A002001F0ACB901F0AAB9B2
:101C280001F0A8B901F0A6B9837800F1100243F0D9
:101C3800040383700169806800F048BC2DE9F04115
:101C48000378044603F0200303F0FF050BB10026D8
:101C58002EE04269184B9A42F9D8FFF7E5FF06468D
:101C68000028F4D02169A06800F0C5FB0746A068E9
:101C780005223946243000F09AFB80460028E6D039
:101C880029464FF4007203F041F90125A3681A7937
:101C9800AA4209D94246E919186800F005FF002848
:101CA800D5D00135EDB2F1E7636903EB42236361F7
:101CB8003046BDE8F08100BFFFFD1F0010B50446A7
:101CC80080680A462430A16900F071FB20B1A3881E
:101CD80003F00F0300EB431010BD70B50478054600
:101CE8000E4684B92422214603F010F9AE60F37938
:101CF800102B03D0202B06D1402300E02023012005
:101D08002B70A87070BD002070BD2DE9F74F0378C7
:101D18000446894615464BB18278D10706D50CE0B2
:101D28005A46216900F06DFB00283DDA63784FF0D0
:101D3800FF3043F00203637097E01A0703D5E369A5
:101D480062699B1A07E09A0608D5A3681A8963692D
:101D5800C3EB42139BB29D4228BF1D462E464FF04F
:101D6800000804F1100B002E35D02278636912F0B8
:101D7800200FC3F3080AA0684FEA532102D0036A70
:101D880019441DE090F8058001EA0808BAF1000F2F
:101D980010D1B8F1000F0DD1002BC1D153064CBFA3
:101DA800036A236A236105E004D1237813F0700FD6
:101DB80011D1BBE72169A06800F01DFB08EB000109
:101DC800A068BAF1000F35D1B6F5007F32D3C36AE7
:101DD800994202D12EE0A81B47E0B6F5806F1BD3CD
:101DE80022784FEA562A970606D40279C8EB0202EF
:101DF800D2B2924528BF924699424FEA4A2707D263
:101E0800A06853464A46006800F00CFE60B98DE7AA
:101E18005344994221D3F3E74A46006800F0BAFDDB
:101E2800002883D04FF400776369B9443B44636169
:101E3800F61B98E70022243000F0B9FA00283FF496
:101E480075AFCAF50077B74228BF374600EB0A01DD
:101E58003A46484603F04FF8E6E72430019100F08F
:101E68007FFA01990028CBD160E703B0BDE8F08F75
:101E78002DE9F34780460E4691461F464FF0FF3A3C
:101E880000256C1C4C4520DA01220DF10701404663
:101E9800FFF73BFF0FFA80FABAF1010F15D19DF851
:101EA80007100D2902D12C462546EAE724B27155C0
:101EB80017B90A29F8D104E0384603F057F8002882
:101EC800F2D000233355204607E0BAF1000F02DABA
:101ED8004FF0FF3001E02C46F3E702B0BDE8F08791
:101EE80037B543690446C3F3431505B169B90122FF
:101EF8000DF107012046FFF708FF40B2012801D085
:101F0800002008E063691F3300E02033A0686361A4
:101F1800303000EB451003B030BD2DE9F0410E46DE
:101F2800017804460769002939D04569B5423AD095
:101F38000EB9066131E00B0703D5C3699E422ED85E
:101F480007E0880605D5A3681B89B6EB431F26D88A
:101F580023E0D4F808E06A1E9EF8063003F1090071
:101F6800731EC240C3409A4200D84DB94A064CBFBE
:101F7800DEF82020226A22611D4604F110080AE0DA
:101F88009B1AF9E742462169A06800F03AFA00284E
:101F980005F1FF3503DD002DF4D1666103E027610B
:101FA8000020BDE8F0810120BDE8F081F8B50F46BA
:101FB80004461546002124221E4602F0A7FFB868F1
:101FC800A580A0603B6A05F00F0200F130015201C4
:101FD800E3601144CB7A1D074CD4831893F83B3047
:101FE80003F017032370C97A11F0180F04BF43F0E8
:101FF800080323709DF81830E37006F00303012BE3
:1020080009D0022B05D0002B34D1710532D401231D
:1020180002E0032300E00223A370A1788B0703D515
:10202800237813F0110F25D14BB216F4005F06F098
:10203800080114BF6FF07F07002719433943A170C7
:10204800C36A0244A361B2F84410B2F84A30750575
:1020580043EA014104D581B100F073FA68B909E097
:102068002162D36CE36173040CD5E1692046FFF764
:1020780054FF38B900202070F8BDA37843F004035A
:10208800A370F0E70120F8BD38B5037804460BB912
:10209800012038BD83785A0723D50121FFF70EFEAA
:1020A800054628B96378002043F00103637038BD02
:1020B8000378E52BF6D023781B0744BFE369C36197
:1020C800238C4383638C8382094B1B682BB100F1FB
:1020D8001601183098472B8B6B82A37823F00403E2
:1020E800A370A068FFF786FA0028DBD0D0E700BF0E
:1020F800F80A002010B50446FFF7C6FF0023237036
:1021080010BDF0B51F4693B000238DF824308DF82C
:102118002530037806460C4601920BB100203DE0BD
:102128000B7813F0700FF9D013782F2B12D1019B75
:102138001A782F2A02D101330193F8E7A1681AB956
:102148003046FFF7CAFD29E009A8FFF7C6FD0028B9
:10215800E4D009AC01AA03A90198FFF767FA00289F
:10216800DCD0019B1B789BB1002303AA2146304693
:10217800FFF79EFB0028D1D0354609AC0FCD0FC420
:102188000FCD0FC42B6830462360FFF7B3FFE0E79D
:102198003B4603AA21463046FFF78AFB13B0F0BD41
:1021A8002DE9F0470378894619070446904608D573
:1021B80083789A0705D51B070BD5E169FFF7ADFEB4
:1021C80038B963784FF0FF3043F001036370BDE81E
:1021D800F0876369DB439845F3D846464FF0000A19
:1021E8006369002E7FD0A068C3F30807427912EA1A
:1021F80053251CD1DFB9216971B104F1100200F037
:1022080000F90028DDDB40F08D802046FFF70CFD4B
:10221800002840F08780D4E7236A3BB92046FFF7BF
:1022280003FD0028CDD02369236200E023612169E2
:10223800A06800F0E0F8291817B9B6F5007F21D298
:10224800C7F50075B54228BF354637B96369E269F5
:10225800934234BF0122052200E00122A068243005
:1022680000F0A5F80028ACD038442A4649462F4447
:1022780002F041FEB7F5007F2FD1A068243000F0AE
:102288006FF816E0B6F5806FA06814D30279730A68
:10229800521BD2B2934228BF1346C26A5D029142D2
:1022A80002D31A44914237D3A7684A46386800F0E7
:1022B8006DFC90B985E7C36A4A46994202BF4FF060
:1022C800FF3380F824A0C362A368186800F0ECFB11
:1022D80000283FF476AF4FF400756369A9442B4496
:1022E8006361761B7CE7E269934201D9E36102E00E
:1022F8000F4B1B681BB1A37843F00403A37094F938
:102308000230002B02DB4046BDE8F0872046FFF78D
:10231800BBFE0028F7D154E74FF0FF3280F824A025
:10232800C262C1E72169A06800F065F8014684E748
:10233800F80A002000F01EBE70B505460C46084697
:1023480049B102F033FE2B68024621462846BDE813
:102358007040DB68184770BD00F00CBE00F00ABE84
:1023680070B503780446DA071ED5436800F10C06F9
:1023780081683246186800F097FB054608B90025C1
:1023880013E023789B0704D4237823F001032370F8
:102398000BE06368A068196932460144186800F0C8
:1023A80083FB0028F0D1EAE70125284670BD70B507
:1023B800836804468B420E46154614D0FFF7D0FFBB
:1023C80008B9002070BD6B0703D500232370A660F1
:1023D80009E0636804F10C023146186800F0DAFA83
:1023E8000028F2D1EDE72046237805F003051D43C8
:1023F80000F80C5B70BD8379023940699940084444
:102408007047012970B505460C46164602D84FF0AC
:10241800FF3070BDC3699942F9D8C379202B10D118
:102428008169022201EBD41100F50C70FFF7BFFFA0
:102438000028ECD004F07F0450F8243023F07043D7
:102448000FE0102BE3D18369C1F30721022219445D
:1024580000F50C70FFF7ABFF0028D8D0E4B230F8D5
:102468001430EA6993429ABF33600120002070BD9E
:10247800012938B50C46154601D8002038BDC36976
:102488009942FAD8C379202B0ED18169032201EB36
:10249800D41100F50C70FFF78AFF0028EDD004F086
:1024A8007F0440F824500FE0102BE6D18369C1F374
:1024B80007210322194400F50C70FFF778FF002864
:1024C800DBD0E4B220F81450012038BD2DE9F341E7
:1024D800C46805468C420E46904607D20C46002733
:1024E800EB6901349C4203D9CFB9EC680127F7E7BF
:1024F800A64214D001AA21462846FFF782FF0028E9
:102508000DDBEDD0019B002BEAD107B1EC606FF039
:10251800704221462846FFF7ABFF074608B9002757
:102528000BE016B9C8F8004007E0224631462846B5
:10253800FFF79EFF0028F5D1F1E7384602B0BDE865
:10254800F08173B505460C4601AA21462846FFF7D7
:1025580058FF061E01DA00200FE000222146284617
:10256800FFF786FF0028F6D0EB689C429CBF04F179
:10257800FF34EC60019C002EE6D102B070BD70B54E
:10258800044601230022C3604FF0FF33C2710D4699
:10259800A06280F82420C362C4F8340280F8302294
:1025A800C0F83832A1B104295DD811462430FFF7AC
:1025B800FEFE002857D000EB051393F8AE315B06FA
:1025C80051D11B3500EB0515D5F80650002D4AD022
:1025D8000022294604F12400FFF7E9FE002842D032
:1025E800B0F80B30B3F5007F3DD1037C022B3AD114
:1025F800C389002B37D0417B09264B1E637100230A
:10260800A371217101238B4207D0013E2BD0A279FF
:102618005B000132DBB2A271F5E7C28A02B9426AF5
:102628002261C6892E44A661B0F8113006EB42013A
:1026380023812162B0F81120520102F2FF1201EB4E
:1026480062226261B0F8133003B9036AAD1A2B44F1
:10265800A57923FA05F56B1CE36140F6F4739D42F6
:1026680003D80C23E371002070BD4FF6F4739D422C
:1026780089BFC36A102323622023E371012070BD40
:1026880000F078BC00F076BC00F074BC70B50E4663
:10269800154600F0EFFC0C4C2368C01A0B4B98420F
:1026A80008D900F0EFFC0A4B186000F069FE00F052
:1026B800E1FC206000F0E6FC80B2801BA842D4BF99
:1026C8000020012070BD00BFFC0A0020A086010088
:1026D800F40F002038B5057A04464DB9406800F07B
:1026E8007DFA63682946187D01F05BFC012323729B
:1026F80038BD10B5037A04466BB143680121187DD3
:1027080001F04FFCFF21606800F09AFA606800F061
:1027180079FA0023237210BDF8B504460D46164613
:1027280000F0B0FC87B2606800F06FFAFF286072B2
:1027380009D14FF47A7239462046FFF7A7FF0028DF
:10274800F1D055230BE0FE2801D0502307E0324694
:102758002946606800F05EFA607230B16023204656
:102768002370FFF7C6FF0020F8BD606800F04DFA3F
:10277800606800F04AFA0120F8BD70B504460E46BC
:1027880000F080FC85B2324629462046FFF77EFFDE
:1027980030B9606800F039FAFF28F4D1012070BD23
:1027A800002070BDF7B5037A04460D4601920BB9B7
:1027B800FFF790FF25B14FF496712046FFF7DDFF34
:1027C80045F04001606800F03BFA0DF107060DF195
:1027D800030716F80119606800F032FABE42F8D112
:1027E800002D0CBF95218721606800F029FA6068E8
:1027F80000F00BFA0B25606800F007FA0306607218
:1028080003D5013D15F0FF05F5D103B0F0BD70B556
:1028180004460D46164637210022FFF7C3FF32460D
:1028280029462046BDE87040FFF7BCBF2DE9F041BE
:1028380000250572057085724160044690461E4663
:1028480000F020FC41460746606800F0CBF9636859
:102858004F4A4FF001081D72DA605D7483F81080EA
:102868002046FFF737FF63684146187D01F099FB62
:102878000A25FF216068013D00F0E2F915F0FF0527
:10288800F7D163682946187D01F08BFB0A250022E1
:1028980011462046FFF786FF0128804612D0013DE9
:1028A80015F0FF0501D1202357E0FD21606800F0F5
:1028B800C7F94FF40278606800F0A7F9B8F1010889
:1028C800F9D1E4E74FF4D57208212046FFF76AFFF3
:1028D800052802D184F80A800FE00425606800F01A
:1028E80094F9013D15F0FF056072F7D1AA2802D1CD
:1028F8000223A37201E025232FE0A37ABFB2022BA3
:102908000CBF4FF0804500252A4629212046FFF7B5
:102918007EFF024648B14FF4FA6239462046FFF777
:10292800B5FE0028F0D0432317E0A37A022B0ED07F
:102938002046FFF7DEFE6368B0683479317B727B2E
:10294800D8601C7219745A740120BDE8F0813A21CC
:102958002046FFF727FF38B1372320462370FFF7BB
:10296800C8FE0020BDE8F081606800F04EF900F074
:10297800C000C02804BF0323A372606800F045F9B3
:10298800606800F042F9606800F03FF9D0E700BFE6
:1029980090D0030038B5837A1546032B18BF490237
:1029A8000A4611210446FFF7FDFE10B130232370BB
:1029B8000BE029464FF400722046FFF7ADFE0546AE
:1029C80018B12046FFF795FE03E02046FFF791FE79
:1029D8000025284638BD10B5837A0A46032B18BF50
:1029E8004A0212210446FFF7DDFE30B131232046AA
:1029F8002370FFF77EFE002010BD012010BD10B52A
:102A080000220C210446FFF7CDFE30B128232046D2
:102A18002370FFF76EFE002010BD2046FFF769FE09
:102A2800012010BDF8B5054616461F46FFF7D3FF2F
:102A380098B10024A3B29F4206EB442108D94FF471
:102A480000722846FFF768FE01340028F2D104E03E
:102A58002846BDE8F840FFF7D2BF0020F8BD38B5DA
:102A680004461546406800F0EBF84FF4007229461A
:102A7800606800F0E9F8FF21606800F0E1F8FF21E4
:102A8800606800F0DDF8606800F0BFF8607200F080
:102A98001F00052806D0572320462370FFF729FE7C
:102AA800002038BD012038BD70B5837A1546032B48
:102AB80018BF49020A4618210446FFF773FE064666
:102AC80008B132231DE02A46FE212046FFF7C7FF42
:102AD800C0B14FF4FA612046FFF74FFE054608B92A
:102AE8005A230EE032460D212046FFF75BFE38B927
:102AF800606800F08AF818B92046FFF7FAFD05E08B
:102B0800292323702046FFF7F4FD0025284670BDD1
:102B180038B50D464FF4FA610446FFF72EFE10B99A
:102B28005B23237005E02A46FC212046FFF797FF28
:102B380018B92046FFF7DDFD002038BD10B5837AAF
:102B48000A46032B18BF4A0219210446FFF72AFE3A
:102B580030B1332320462370FFF7CBFD002010BD92
:102B6800012010BD38B54FF4FA610446FFF705FEA1
:102B7800054620B1FD21606800F062F801E05623A7
:102B880023702046FFF7B5FD284638BDF8B5054641
:102B980016461F46FFF7D2FF70B10024BC4206EB71
:102BA8004421284604D0FFF7B3FF28B10134F5E7E4
:102BB800BDE8F840FFF7D6BF2846FFF79AFD00208A
:102BC800F8BD00F0D7B900F0D5B900F0D3B90000CE
:102BD800014B01221A707047000B0020011D00688C
:102BE80000F060BC10B504460175006800F03CFCBC
:102BF800207D012101F0C4F9207D0121BDE81040AC
:102C080001F0CFB9006800F034BCFF21006800F083
:102C1800B9BC000037B5084B00250093074C134694
:102C280000680A462946257000F0B2FC2378002B7C
:102C3800FCD0002003B030BDD92B0A08000B0020BF
:102C4800006800F09FBC000037B5074B00250093D3
:102C5800064C134600682A46257000F099FC237834
:102C6800002BFCD003B030BDD92B0A08000B002084
:102C780000F080B910B501210648FDF76EFB40B1A0
:102C880001210448FDF774FBBDE81040024B1B68A6
:102C9800184710BD00040040040B002010B50121A6
:102CA8000648FDF75AFB40B101210448FDF760FBD7
:102CB800BDE81040024B5B68184710BD0008004093
:102CC800040B002010B501210648FDF746FB40B172
:102CD80001210448FDF74CFBBDE81040024B9B68FE
:102CE800184710BD000C0040040B002010B501214E
:102CF8000648FDF732FB40B101210448FDF738FBD7
:102D0800BDE81040024BDB68184710BD00100040BA
:102D1800040B002010B501210648FDF71EFB40B149
:102D280001210448FDF724FBBDE81040024B1B6954
:102D3800184710BD00140040040B0020F0B5437A7A
:102D480085B005460F461646042B30D8DFE803F059
:102D5800030C151E270001210220FDF7DDF91D23B4
:102D68008DF80030294C22E001210420FDF7D4F928
:102D78001E238DF80030264C19E001210820FDF7AC
:102D8800CBF932238DF80030224C10E001211020BD
:102D9800FDF7C2F936238DF800301F4C07E00121FA
:102DA8002020FDF7B9F91D4C37238DF800301EB1EE
:102DB800012E01D1AE8800E06E886A7AE968184B66
:102DC800012543F8221068460A238DF801308DF852
:102DD80002508DF80350FDF769F9002301A9204638
:102DE800ADF80630ADF80C308DF80E30ADF8046053
:102DF8000297FDF75FFA2A4629462046FDF7A4FA0E
:102E080029462046FDF794FA05B0F0BD00040040BD
:102E180000080040000C0040001000400014004072
:102E2800040B0020042BF8B506460F4696461C46B0
:102E38000E4D11D900242A5DE3B24AB973723046A7
:102E480072463946FFF77AFF084B01201855F8BD3E
:102E58000134052CEFD107E0EB5C2BB94472FFF786
:102E68006DFF01202855F8BD0020F8BD180B002083
:102E780073B5437A0646042B1CD8DFE803F0030831
:102E88000D1217001D238DF80430134C12E01E2379
:102E98008DF80430114C0DE032238DF80430104CBD
:102EA80008E036238DF804300E4C03E037230E4C2F
:102EB8008DF8043000212046FDF73AFA002501A8D4
:102EC8008DF80750FDF7F2F82046FDF749F9737AB7
:102ED800064AD55402B070BD000400400008004006
:102EE800000C00400010004000140040180B0020A7
:102EF8002DE9F0411F46037A0446884616469DF898
:102F080018501BB1FFF7B4FF00232372042DC4F837
:102F18000C8010D82B463A4631462046FFF782FFF0
:102F280020B1012303E00135052D06D100232372CA
:102F3800207ABDE8F081084B0025E95CEAB2002957
:102F4800F1D1627231463A462046FFF7F7FE024A4F
:102F580001235355EBE700BF180B0020037A10B587
:102F680004460BB1FFF784FF0023237210BD00F065
:102F780001B8000008B5024B1B681B68019308BD27
:102F8800B001060808B5024B1B685B68019308BDD1
:102F9800B001060808B5024B1B689B68019308BD81
:102FA800B001060808B5024B1B68DB68019308BD31
:102FB800B001060808B5024B1B681B69019308BDE0
:102FC800B001060808B5024B1B681B6B019308BDCE
:102FD800B001060808B5024B1B681B6C019308BDBD
:102FE800B001060808B5024B1B681B68019308BDB1
:102FF800B401060808B5024B1B685B69019308BD5C
:10300800B401060808B5024B1B68DB69019308BDCB
:10301800B401060808B5024B1B681B6A019308BD7A
:10302800B401060808B5024B1B685B6A019308BD2A
:10303800B401060808B5024B1B689B6A019308BDDA
:10304800B401060808B5024B1B689B6B019308BDC9
:10305800B401060808B5024B1B68DB6B019308BD79
:10306800B401060808B5024B1B685B68019308BDEC
:103078009C01060808B5024B1B681B69019308BD33
:103088009C01060808B5024B1B685B69019308BDE3
:103098009C01060808B5024B1B68DB69019308BD53
:1030A8009C01060808B5024B1B689B6D019308BD7F
:1030B8009C01060808B5024B1B68DB6E019308BD2E
:1030C800B801060808B5024B1B685B68019308BD88
:1030D800D001060808B5024B1B68DB68019308BDE0
:1030E800D001060808B5024B1B681B6B019308BD8D
:1030F800D001060808B5024B1B689B6B019308BDFD
:10310800D001060808B5024B1B681B6C019308BD6B
:10311800D001060808B5024B1B685B6C019308BD1B
:10312800D001060808B5024B1B68DB6C019308BD8B
:10313800D001060808B5024B1B685B6D019308BDFA
:10314800D001060808B5024B1B68DB6E019308BD69
:10315800D001060808B5024B1B689B69019308BD9E
:10316800C401060808B5024B1B685B6A019308BDD9
:10317800C401060808B5024B1B689B6A019308BD89
:10318800C401060808B5024B1B68DB6A019308BD39
:10319800C401060808B5024B1B681B6B019308BDE8
:1031A800C401060808B5024B1B685B6B019308BD98
:1031B800C401060808B5024B1B689B6B019308BD48
:1031C800C401060808B5024B1B681B6C019308BDB7
:1031D800C401060808B5024B1B68DB6C019308BDE7
:1031E800C401060808B5024B1B681B6E019308BD95
:1031F800AC01060808B5024B1B685B6E019308BD5D
:10320800AC01060808B5024B1B689B6E019308BD0C
:10321800AC01060808B5024B1B68DB6E019308BDBC
:10322800AC01060808B5024B1B681B6F019308BD6B
:10323800AC01060808B5024B1B685B6F019308BD1B
:10324800AC01060808B5034B1B68D3F8803001931E
:1032580008BD0000AC01060808B5024B1B681B68D6
:10326800019308BDD401060808B5024B1B685B68CA
:10327800019308BDD401060808B5024B1B681B69F9
:10328800019308BDD401060808B5024B1B681B68EA
:10329800019308BDD801060808B5024B1B685B6896
:1032A800019308BDD801060808B5024B1B681B69C5
:1032B800019308BDD801060808B5024B1B685B6975
:1032C800019308BDD801060808B5024B1B689B6925
:1032D800019308BDD801060808B5024B1B68DB69D5
:1032E800019308BDD801060808B5024B1B681B6A84
:1032F800019308BDD801060808B5024B1B681B6876
:10330800019308BDA401060808B5024B1B685B6859
:10331800019308BDA401060808B5024B1B685B6948
:10332800019308BDA401060808B5024B1B68DB6AB7
:10333800019308BDA401060808B5024B1B689B6DE4
:10334800019308BDA401060808B5034B1B68D3F810
:103358009030019308BD0000A401060808B5034B8E
:103368001B68D3F89C30019308BD0000A40106082F
:1033780008B5024B1B681B69019308BDC801060804
:1033880008B5024B1B689B68019308BDCC01060871
:1033980008B5024B1B685B69019308BDCC010608A0
:1033A80008B5024B1B681B6B019308BDCC010608CE
:1033B80008B5024B1B68DB6B019308BDCC010608FE
:1033C80008B5024B1B681B68019308BDA0010608DD
:1033D80008B5024B1B685B68019308BDA00106088D
:1033E80008B5024B1B689B68019308BDA00106083D
:1033F80008B5024B1B689B69019308BDA00106082C
:1034080008B5024B1B685B6A019308BDA00106085A
:1034180008B5024B1B68DB6A019308BDA0010608CA
:1034280008B5024B1B681B6B019308BDA001060879
:10343800704710B50446FCF72EFE204610BD00006C
:1034480070B504460E46074B0025036040F80C5F34
:10345800FFF748FE30462671FFF7D4FDA5602046E9
:1034680070BD00BFE0590A084FF6FF710079FFF7F9
:10347800B9BDC068FFF746BE400830B518600024E3
:103488001868E5B2884206D90134082C02D04008F1
:103498001860F5E70725024B5B5D137030BD00BF70
:1034A800E8590A082DE9F04380468FB0C0680F46F6
:1034B800FFF720FE98F804401422002109A801F023
:1034C80025FD0B232046002209A9ADF82430FFF77B
:1034D800A9FD9DF82D404CB19DF82C502DB90C9E9E
:1034E8009DF834909DF8354003E00024A146264617
:1034F80001253B790DB1002B40D19D420BD1BA6813
:10350800B24208D18DF820908DF82140BDF82010E6
:10351800BA89914232D023BB8DF80F300DF10F02DA
:1035280004ABB9680A98FFF7A7FF3B7905B113BB4D
:10353800AB4209D000213B7B01917C7B9DF80F2099
:1035480098F80400009413E0BB68B342F2D38DF8F6
:1035580020908DF82140BDF82020BB899A42E9D1FE
:1035680009E000231A4698F804000193009301210A
:10357800FFF770FD02E0049BB342DBD100200FB0DF
:10358800BDE8F08308B50079FFF734FDC0B208BD87
:1035980030B587B00A9D044600790095FFF74AFDCB
:1035A8003DB902A92079FFF74DFD9DF81430DB07DE
:1035B800F7D407B030BD0079FFF72CBD4FF69C73E8
:1035C80037B50D4C002563804FF6FF732846A3805E
:1035D8002570FFF799FE02A840F8045D2A4629469F
:1035E800FFF768FD019B1E2B04D1032323701123D1
:1035F8006580A38003B030BD1E0B002010B50446C3
:103608000068FFF7E5FE204610BD10B504460068C7
:1036180008B1FFF7DDFE00232360A360636010BDDF
:1036280038B504460D4600680131FFF7D9FE10B1E0
:1036380084E82100012038BD10B50368044613B1A1
:1036480043688B4207D22046FFF7EAFF20B1A36800
:103658000BB922681370012010BD70B50E461146D3
:1036680004461546FFF7E8FF18B92046FFF7CDFFD7
:1036780009E02A463146A560206801F03CFC226832
:10368800A3680021D154204670BD38B500230446F4
:1036980003604360836003730D4639B1084601F047
:1036A80085FC294602462046FFF7D7FF204638BD4D
:1036B800884210B50B46044607D0096819B19A68C4
:1036C800FFF7CBFF01E0FFF7A0FF204610BD10B5C4
:1036D800044600230360436083600373FFF7E8FF39
:1036E800204610BD38B505460C4641B1084601F0E4
:1036F8005DFC214602462846FFF7AFFF01E0FFF7D1
:1037080084FF284638BDF8B506460D468F180024B4
:10371800BD420CD0336815F8011B9B6830469847AA
:10372800002801DB0444F3E7002C08BF04462046C8
:10373800F8BD08B5FEF700FE08BD03689B6818478A
:1037480038B50D210546FFF7F8FF0A21044628463B
:10375800FFF7F3FF204438BD38B50546FEF7ECFD0A
:1037680004462846FFF7ECFF204438BD012A98BFDD
:103778000A2230B50B468BB000218DF824100DF1CC
:103788002304B3FBF2F505FB1233DBB2092B94BF1C
:1037980030333733DBB2214604F801392B46002D8C
:1037A800EFD1FEF7C9FD0BB030BD10B422B90368E4
:1037B800C9B29B6810BC1847D2B210BCFFF7D6BF7D
:1037C800FFF7F3BF0CB42DE9F04387B000AF07F162
:1037D800380454F8049B05460E4623464A461421ED
:1037E800381D3C60FFF70CFE132805D8391D284604
:1037F800FEF7A2FD044613E000F1080323F00703D7
:10380800E846ADEB030D411C23464A4668463C603A
:10381800FFF7F6FD69462846FEF78EFD0446C546C5
:103828001EB12846FFF78CFF044420461C37BD46CE
:10383800BDE8F04302B07047014A024B1A60704776
:10384800AB5A0A08240B0020F0B5144B144F1E681D
:10385800144B064418683B6806449E428BB01BD044
:103868000AA840F8286D01F03FFA0446436901AD03
:1038780003F26C7343610FCC0FC50FCC0FC5D4F89E
:1038880000E0094CC5F800E001AD0FCD0FC40FCD25
:103898000FC43E60C4F800E00BB0F0BD580B002028
:1038A800540B0020500B0020280B002008B50020E6
:1038B800FFF776FD28B1FFF76BFD80F00100C0B27D
:1038C80008BD012008BD000008B5FFF7BDFF024B89
:1038D8001869013008BD00BF280B002010B5002072
:1038E800FFF7E0FB044668B9FFF706FD01280BD196
:1038F8002046FFF721FD38B9FFF7D8FF30B9FFF7A9
:103908003FFDF9E7012010BD002010BDFFF7CEFFF5
:103918000020FFF7C7FB003018BF012010BD08B515
:10392800FFF7DCFFBDE80840FFF7B4BB08B5FFF7B9
:10393800F6FFFFF789FF014B986808BD280B0020A8
:1039480008B5FFF7ECFFFFF77FFF014B586808BD8C
:10395800280B002008B5FFF7E2FFFFF775FF014BC2
:10396800186808BD280B002008B5FFF7D8FFFFF737
:103978006BFF014BD86808BD280B002008B5FFF77E
:10398800CEFFBDE80840FFF79FBF000008B5FFF76E
:10399800C6FFFFF759FF014B586908BD280B0020E7
:1039A800024B1A68024B1A60704700BF08030020D8
:1039B8004C0B00200021FFF7AFBC10B50446FCF704
:1039C80025FD204610BD0000034800238360034AFC
:1039D800034900F071BB00BF5C0B0020C00300204E
:1039E800C3390A0808B5144B33B100F029F9036844
:1039F8001B699847002816DC104B33B100F00AFA0F
:103A080003681B699847002810DC0D4B0BB1AFF316
:103A180000800C4B7BB100F04FF903681B69984795
:103A2800002806DC08BDAFF30080E5E7AFF30080AF
:103A3800EBE7AFF3008008BD0000000000000000C5
:103A4800000000000000000008B5FFF7CBFFFFF7FB
:103A580019FB014B186008BDF40F00200248034A07
:103A68000349121A01F047BA0040024004400240DC
:103A7800505E0A0807B5002300931A466FF07701D5
:103A8800FFF76CFC03B05DF804FB000007B5438842
:103A98000A2B08D0502B09D1094B1B683BB103B046
:103AA8005DF804EB1847FFF7E5FF06E000230093F5
:103AB8001A466FF07701FFF751FC03B05DF804FB7D
:103AC8006C0B002038B5104C104D2368AB42104BDE
:103AD8000CBF012200221A7002D0FFF7BFFF256039
:103AE800FFF7C0FA01F01AFA0A4B1BB1FFF7BAFA4E
:103AF800AFF3008000210748FFF75AFCBDE83840C3
:103B080000210548FFF720BC004002401E1C279AF0
:103B1800700B002000000000953A0A08704710B5A5
:103B28000446FCF7B8FA204610BDF8B50F4600F178
:103B38000806051D002416F8011D0A223846FFF75D
:103B48003FFEAE42044407D0002CF4D02E21384664
:103B5800FFF7F3FD0444EEE72046F8BD10B59DF8E5
:103B6800084044EA032343EA024242EA016104238B
:103B78004160037510BD000037B5044D05609DF820
:103B880018500095FFF7EAFF03B030BD045B0A0840
:103B98004174704770470021007CFFF795BB0121F5
:103BA800007CFFF791BB007CFFF786BB007CFFF72A
:103BB8007BBB38B50446007C0D46FFF77DFB00282B
:103BC80001DC607C20B12946207CFFF785FB0120C1
:103BD80038BD007CFFF788BB10B50446FCF75BFADC
:103BE800204610BD10B50446002363604FF47A7375
:103BF800A360054B084623600123217463741146B2
:103C0800FFF742FB204610BD185B0A080022007C23
:103C1800FFF742BB10B504461422002101F076F9E3
:103C2800054B20466360054BE36040F20113238196
:103C38008123238210BD00BFF90B0020780B0020E0
:103C480030B50E4D87B001A8FFF7E4FF296811F0E1
:103C5800010410D12846FCF720FA60B101AA2146D8
:103C68000748FFF7BFFF2846FCF71CFA054A064934
:103C7800034800F021FA024807B030BD740B002059
:103C8800FC0C0020C00300209D3B0A0810B5044628
:103C98001422002101F03AF9054B20466360054BD8
:103CA800E36040F2011323818123238210BD00BF0A
:103CB800AC0D0020140D002010B50E4C86B001A8E4
:103CC800FFF7E4FF2368DB0710D42046FCF7E5F98B
:103CD80060B101AA01210848FFF784FF2046FCF7DC
:103CE800E1F9064A0649044800F0E6F9024806B038
:103CF80010BD00BF100D0020980D0020C00300204B
:103D08009D3B0A08826810B50AB900F0F2F9C36849
:103D1800BDE81040184738B5002383608B68044617
:103D28000D462BB102229847EB68E360AB68A360AD
:103D3800204638BD7FB5114B044610200E4600932F
:103D4800FCF7A7F9054610B13146FFF7E4FF002359
:103D5800204602AA6946019502930393FFF73AF9B0
:103D6800039C051C18BF01252CB12046FCF74EFB0F
:103D78002046FCF790F9284604B070BD0D3D0A08AE
:103D8800704741747047007CFFF71CBA007CFFF74E
:103D9800F1B9007CFFF7FEB9007CFFF7F3B9007CAE
:103DA800FFF700BA10B50446FCF775F9204610BDB8
:103DB80070B5457C04460E4625B9007CFFF702FA2B
:103DC800002805DD3146207CBDE87040FFF7CAB900
:103DD800284670BD10B504460846114600226260A8
:103DE8004FF47A72A260054A20742260012262743C
:103DF8001A46FFF7AFF9204610BD00BF485B0A0816
:103E08000023007CFFF7E6B90022FFF7F9BF007C2A
:103E1800FFF7D0B938B50C4D296811F0010411D15C
:103E28002846FCF73AF968B1084A2146084B094880
:103E3800FFF7D0FF2846FCF735F9074A0749054838
:103E480000F03AF9034838BD480F00204C0F002015
:103E5800C40E0020B00E0020C0030020893D0A08CF
:103E68007047F8B5064615460C468F18BC4206D072
:103E7800336814F8011B9B6830469847F6E72846D4
:103E8800F8BD0022007CFFF7ADB90021007CFFF7E8
:103E9800B1B90021007CFFF7B5B90021007CFFF71C
:103EA800B9B90021007CFFF7BDB910B50446FCF78D
:103EB800F2F8204610BD000010B5044608464FF43D
:103EC8007A73A360044B0021207461602360FFF7BC
:103ED800B9F9204610BD00BF785B0A080021007CB4
:103EE800FFF7A8B910B504460846114620701A46CF
:103EF8000023FFF7B1F9204610BD00230078FFF733
:103F0800B3B900220078FFF7B7B97047002211460D
:103F18001046FFF72DBA00000348044B044A054930
:103F2800036000F0C9B800BFD00F0020A05B0A08EA
:103F3800C0030020133F0A0810B504460F48FFF7D6
:103F48003AFB28B1A4F10D03022B01D8002010BDC3
:103F580000F092F8FFF7C2FF08B1012CF6D9FFF77D
:103F680059FFFFF754FF18B1A4F11203012BEDD943
:103F7800172C8CBF0020012010BD00BFD40F0020DB
:103F8800172838B504460D460AD8FF2908D0FFF788
:103F9800D3FF28B129462046BDE83840FEF7FABFCE
:103FA80038BD38B504460D46FEF7FCFFFF2810D093
:103FB800062804D84D2323FA00F0C30709D4204665
:103FC800FFF7BAFF28B129462046BDE83840FEF77A
:103FD800F1BF38BD10B5044609289CBF0A34A4B205
:103FE8002046FFF7A9FF50B103212046FEF7CAFF7C
:103FF800032804D12046BDE81040FEF7E3BF0020A7
:1040080010BD000070B50C4C0C4E0D4D0021204623
:10401800FFF716FA20460B4C3246294600F04CF8BA
:1040280001212046FFF70CFA324629462046BDE812
:10403800704000F041B800BFD40F0020C00300203A
:1040480039340A08E40F002013B5084C00231A4637
:10405800194600932046FFF78FFD2046044A05497C
:1040680002B0BDE8104000F027B800BFF80F0020EC
:10407800C0030020253B0A0838B50B4D296811F00C
:1040880001040FD12846FCF708F858B12146074823
:10409800FFF712FF2846FCF705F8054A05490348CB
:1040A80000F00AF8014838BD101000201410002054
:1040B800C0030020693E0A080B460146184600F076
:1040C80005BE0000024B1868BFF35F8F704700BF42
:1040D8002810002010B5002814BF044601242046EB
:1040E800FFF76EF920B9FFF7EDFF08B18047F6E753
:1040F80010BD08B5FFF78CF9184B1A68D1075CBFDB
:1041080001221A60164B1A68D2075CBF01221A6096
:10411800144B1A68D0075CBF01221A60124B1A6848
:10412800D1075CBF01221A60104B1A68D2075CBF26
:1041380001221A600E4B1A68D0075CBF01221A6070
:104148000C4B1A68D1075CBF01221A600A4B1A6827
:10415800D2075CBF01221A60704700BF48100020D8
:1041680044100020401000203C100020381000208F
:1041780034100020301000202C100020244B1A6826
:10418800D0075CBF01221A60224B1A68D1075CBFB6
:1041980001221A60204B1A68D2075CBF01221A60FC
:1041A8001E4B1A68D0075CBF01221A601C4B1A68A4
:1041B800D1075CBF01221A601A4B1A68D2075CBF8C
:1041C80001221A60184B1A68D0075CBF01221A60D6
:1041D800164B1A68D1075CBF01221A60144B1A6883
:1041E800D2075CBF01221A60124B1A68D0075CBF65
:1041F80001221A60104B1A68D1075CBF01221A60AD
:104208000E4B1A68D2075CBF01221A60704700BFC4
:104218007810002074100020701000206C1000200E
:104228006810002064100020601000205C1000203E
:104238005810002054100020501000204C1000206E
:10424800244B1A68D0075CBF01221A60224B1A68F7
:10425800D1075CBF01221A60204B1A68D2075CBFE5
:1042680001221A601E4B1A68D0075CBF01221A602F
:104278001C4B1A68D1075CBF01221A601A4B1A68D6
:10428800D2075CBF01221A60184B1A68D0075CBFBE
:1042980001221A60164B1A68D1075CBF01221A6006
:1042A800144B1A68D2075CBF01221A60124B1A68B5
:1042B800D0075CBF01221A60104B1A68D1075CBF97
:1042C80001221A600E4B1A68D2075CBF01221A60DD
:1042D800704700BFA8100020A4100020A0100020E4
:1042E8009C100020981000209410002090100020AE
:1042F8008C100020881000208410002080100020DE
:104308007C100020184B1A68D1075CBF01221A6084
:10431800164B1A68D2075CBF01221A60144B1A6840
:10432800D0075CBF01221A60124B1A68D1075CBF24
:1043380001221A60104B1A68D2075CBF01221A606A
:104348000E4B1A68D0075CBF01221A600C4B1A6822
:10435800D1075CBF01221A600A4B1A68D2075CBFFA
:1043680001221A60704700BFC8100020C410002046
:10437800C0100020BC100020B8100020B41000208D
:10438800B0100020AC10002081F0004102E000BF16
:1043980083F0004330B54FEA41044FEA430594EAFD
:1043A800050F08BF90EA020F1FBF54EA000C55EA38
:1043B800020C7FEA645C7FEA655C00F0E2804FEA09
:1043C8005454D4EB5555B8BF6D420CDD2C4480EAEB
:1043D800020281EA030382EA000083EA010180EA1B
:1043E800020281EA0303362D88BF30BD11F0004F69
:1043F8004FEA01314FF4801C4CEA113102D040429F
:1044080061EB410113F0004F4FEA03334CEA1333D9
:1044180002D0524263EB430394EA050F00F0A780F1
:10442800A4F10104D5F1200E0DDB02FA0EFC22FAEC
:1044380005F2801841F1000103FA0EF2801843FAE0
:1044480005F359410EE0A5F120050EF1200E012AD1
:1044580003FA0EFC28BF4CF0020C43FA05F3C0180F
:1044680051EBE37101F0004507D54FF0000EDCF188
:10447800000C7EEB00006EEB0101B1F5801F1BD331
:10448800B1F5001F0CD349085FEA30004FEA3C0C35
:1044980004F101044FEA445212F5800F80F09A802B
:1044A800BCF1004F08BF5FEA500C50F1000041EB2F
:1044B800045141EA050130BD5FEA4C0C404141EB33
:1044C800010111F4801FA4F10104E9D191F0000F5A
:1044D80004BF01460020B1FA81F308BF2033A3F1DD
:1044E8000B03B3F120020CDA0C3208DD02F1140CD4
:1044F800C2F10C0201FA0CF021FA02F10CE002F10F
:104508001402D8BFC2F1200C01FA02F120FA0CFC07
:10451800DCBF41EA0C019040E41AA2BF01EB045150
:10452800294330BD6FEA04041F3C1CDA0C340EDC4E
:1045380004F11404C4F1200220FA04F001FA02F391
:1045480040EA030021FA04F345EA030130BDC4F14F
:104558000C04C4F1200220FA02F001FA04F340EA44
:104568000300294630BD21FA04F0294630BD94F0F5
:10457800000F83F4801306BF81F480110134013DDC
:104588004EE77FEA645C18BF7FEA655C29D094EA4D
:10459800050F08BF90EA020F05D054EA000C04BFCB
:1045A8001946104630BD91EA030F1EBF00210020B6
:1045B80030BD5FEA545C05D14000494128BF41F055
:1045C800004130BD14F580043CBF01F5801130BDB9
:1045D80001F0004545F0FE4141F470014FF0000044
:1045E80030BD7FEA645C1ABF194610467FEA655CF5
:1045F8001CBF0B46024650EA013406BF52EA033597
:1046080091EA030F41F4002130BD00BF90F0000F84
:1046180004BF0021704730B54FF4806404F13204C0
:104628004FF000054FF0000150E700BF90F0000F79
:1046380004BF0021704730B54FF4806404F13204A0
:1046480010F0004548BF40424FF000013EE700BF70
:1046580042004FEAE2014FEA31014FEA02701FBF00
:1046680012F07F4393F07F4F81F06051704792F0D2
:10467800000F14BF93F07F4F704730B54FF460744C
:1046880001F0004521F0004120E700BF50EA010297
:1046980008BF704730B54FF000050AE050EA010244
:1046A80008BF704730B511F0004502D5404261EBB4
:1046B80041014FF4806404F132045FEA915C3FF4F5
:1046C800DCAE4FF003025FEADC0C18BF03325FEA8E
:1046D800DC0C18BF033202EBDC02C2F1200300FA43
:1046E80003FC20FA02F001FA03FE40EA0E0021FA68
:1046F80002F11444C1E600BF4FF0FF3C06E000BFE2
:104708004FF0010C02E000BF4FF0010C4DF804CD52
:104718004FEA410C7FEA6C5C4FEA430C18BF7FEA12
:104728006C5C1BD001B050EA410C0CBF52EA430C40
:1047380091EA030F02BF90EA020F0020704710F1C0
:10474800000F91EA030F58BF994208BF90422CBF4F
:10475800D8176FEAE37040F0010070474FEA410C48
:104768007FEA6C5C02D150EA013C07D14FEA430C66
:104778007FEA6C5CD6D152EA033CD3D05DF8040BD7
:10478800704700BF8446104662468C461946634609
:1047980000E000BF01B5FFF7B7FF002848BF10F1E0
:1047A800000F01BD4DF808EDFFF7F4FF0CBF012025
:1047B80000205DF808FB00BF4DF808EDFFF7EAFFA1
:1047C80034BF012000205DF808FB00BF4DF808ED5C
:1047D800FFF7E0FF94BF012000205DF808FB00BF51
:1047E8004DF808EDFFF7CEFF94BF012000205DF8DB
:1047F80008FB00BF4DF808EDFFF7C4FF34BF0120E8
:1048080000205DF808FB00BF80F0004002E000BF18
:1048180081F0004142001FBF5FEA410392EA030FA3
:104828007FEA226C7FEA236C6AD04FEA1262D2EBED
:104838001363C1BFD218414048404140B8BF5B42F2
:10484800192B88BF704710F0004F40F4000020F08B
:104858007F4018BF404211F0004F41F4000121F0A1
:104868007F4118BF494292EA030F3FD0A2F10102EB
:1048780041FA03FC10EB0C00C3F1200301FA03F129
:1048880000F0004302D5494260EB4000B0F5000F4C
:1048980013D3B0F1807F06D340084FEA310102F10B
:1048A8000102FE2A51D2B1F1004F40EBC25008BFBD
:1048B80020F0010040EA03007047490040EB000087
:1048C80010F4000FA2F10102EDD1B0FA80FCACF1B6
:1048D800080CB2EB0C0200FA0CF0AABF00EBC250B5
:1048E80052421843BCBFD0401843704792F0000FA3
:1048F80081F4000106BF80F400000132013BB5E7F6
:104908004FEA41037FEA226C18BF7FEA236C21D06B
:1049180092EA030F04D092F0000F08BF08467047D0
:1049280090EA010F1CBF0020704712F07F4F04D19E
:10493800400028BF40F00040704712F100723CBFB1
:1049480000F50000704700F0004343F0FE4040F4DB
:10495800000070477FEA226216BF08467FEA236399
:104968000146420206BF5FEA412390EA010F40F484
:10497800800070474FF0000304E000BF10F00043D0
:1049880048BF40425FEA000C08BF704743F09643B7
:1049980001464FF000001CE050EA010208BF7047D2
:1049A8004FF000030AE000BF50EA010208BF704759
:1049B80011F0004302D5404261EB41015FEA010C6E
:1049C80002BF84460146002043F0B64308BFA3F166
:1049D8008053A3F50003BCFA8CF2083AA3EBC25348
:1049E80010DB01FA02FC634400FA02FCC2F1200267
:1049F800BCF1004F20FA02F243EB020008BF20F09E
:104A08000100704702F1200201FA02FCC2F1200203
:104A180050EA4C0021FA02F243EB020008BF20EAF8
:104A2800DC7070474FF0FF0C1CEAD0521EBF1CEA26
:104A3800D15392EA0C0F93EA0C0F6FD01A4480EA14
:104A4800010C400218BF5FEA41211ED04FF00063FD
:104A580043EA501043EA5111A0FB01310CF0004029
:104A6800B1F5000F3EBF490041EAD3715B0040EA4F
:104A7800010062F17F02FD2A1DD8B3F1004F40EB1F
:104A8800C25008BF20F00100704790F0000F0CF0F2
:104A9800004C08BF49024CEA502040EA51207F3AB6
:104AA800C2BFD2F1FF0340EAC250704740F4000091
:104AB8004FF00003013A5DDC12F1190FDCBF00F082
:104AC80000407047C2F10002410021FA02F1C2F130
:104AD800200200FA02FC5FEA310040F1000053EACC
:104AE8004C0308BF20EADC70704792F0000F00F01A
:104AF800004C02BF400010F4000F013AF9D040EA20
:104B08000C0093F0000F01F0004C02BF490011F4B3
:104B1800000F013BF9D041EA0C018FE70CEAD153B1
:104B280092EA0C0F18BF93EA0C0F0AD030F0004C31
:104B380018BF31F0004CD8D180EA010000F00040E5
:104B4800704790F0000F17BF90F0004F084691F0A3
:104B5800000F91F0004F14D092EA0C0F01D14202DD
:104B68000FD193EA0C0F03D14B0218BF084608D1A6
:104B780080EA010000F0004040F0FE4040F40000F0
:104B8800704740F0FE4040F4400070474FF0FF0C83
:104B98001CEAD0521EBF1CEAD15392EA0C0F93EACA
:104BA8000C0F69D0A2EB030280EA010C49024FEA1C
:104BB800402037D04FF0805343EA111143EA1013D5
:104BC8000CF000408B4238BF5B0042F17D024FF48D
:104BD800000C8B4224BF5B1A40EA0C00B3EB510F68
:104BE80024BFA3EB510340EA5C00B3EB910F24BF51
:104BF800A3EB910340EA9C00B3EBD10F24BFA3EBD6
:104C0800D10340EADC001B0118BF5FEA1C1CE0D19D
:104C1800FD2A3FF650AF8B4240EBC25008BF20F050
:104C2800010070470CF0004C4CEA50207F32C2BFA4
:104C3800D2F1FF0340EAC250704740F400004FF041
:104C48000003013A37E792F0000F00F0004C02BF72
:104C5800400010F4000F013AF9D040EA0C0093F03C
:104C6800000F01F0004C02BF490011F4000F013B96
:104C7800F9D041EA0C0195E70CEAD15392EA0C0FFE
:104C880008D142027FF47DAF93EA0C0F7FF470AF36
:104C9800084676E793EA0C0F04D14B023FF44CAF79
:104CA80008466EE730F0004C18BF31F0004CCAD10E
:104CB80030F000427FF45CAF31F000437FF43CAF4A
:104CC8005FE700BF0A22002100F026BA10B5054CA4
:104CD80013462CB10A4601460220AFF3008010BDEE
:104CE800204610BD0000000038B5074B05461C687B
:104CF800E36B1BB92420FEF763FBE063E16B2846F6
:104D0800BDE8384000F002B8700300202DE9F041FA
:104D18000C46804600F006FD21460746404600F056
:104D280005FD4669044606F26C76B30705D1642290
:104D380096FBF2F302FB13634BB94FF4C87596FB6D
:104D4800F5F305FB1365B5FA85F35B0900E001236C
:104D58005F4A302505FB032500F018FB00F018FB1F
:104D68005C4B1B68F3B17B689E4205D13968D8F863
:104D78000030FA6941B90AE0304600F05FFA0028CD
:104D8800F4D14FF0FF330DE0934208DB01E093428A
:104D980007DABA6B9342ACBF0023012302E0002379
:104DA80000E001232362236A3C20012B0CBFF96B2E
:104DB800396A4FF4616391FBF3F603FB161393FB17
:104DC800F0F200FB123061682368891AA2681B1A86
:104DD800921B3B2B23606160A26003DD013161609F
:104DE8003C3B04E0002B03DA013961603C3323606B
:104DF80063683B2B03DD0132A2603C3B04E0002BDF
:104E080003DA013AA2603C336360A368172B22DD02
:104E1800E269183B0132E261A269A3600132062A05
:104E2800C8BF0022A261E26823690132E26055F836
:104E380023108A4246DD01330C2B08BF6369A2EBBD
:104E48000102E26005BF013300222361226104BF31
:104E58006361E26136E0002B34DAE2691833013A23
:104E6800E261A269A360013A48BF0622A261E26832
:104E7800013AE26032BB2369013B01D423611DE0A2
:104E88000B23236163695A1E12F0030F626103F258
:104E98006B7305D1642193FBF1F201FB12324AB91D
:104EA8004FF4C87193FBF1F201FB1233B3FA83F3A9
:104EB8005B0900E0012303F5B673E361236955F844
:104EC8002330E36000F063FA2046BDE8F08100BFBC
:104ED800085D0A08E810002010B501390244904224
:104EE80007D010F8013B11F8014FA342F7D0181B67
:104EF80010BD002010BD10B5431E0A44914204D0D5
:104F080011F8014B03F8014FF8E710BD03460244BE
:104F1800934202D003F8011BFAE7704738B5124BE9
:104F280005461C68A36BD3B91820FEF749FA43F26B
:104F38000E33A06303804AF6CD33438041F2342315
:104F480083804EF26D63C3804DF6EC6303810523C5
:104F580043810B23838101220023C0E90423A36B2F
:104F680000221D615A6138BD70030020C9B2034692
:104F780010F8012B1AB19142F9D11846704700294F
:104F88000CBF18460020704710F8012B11F8013BA0
:104F9800012A28BF9A42F7D0D01A7047034611F861
:104FA800012B03F8012B002AF9D17047034613F8A7
:104FB800012B002AFBD1181A0138704730B582B18D
:104FC800451E013915F8013F11F8014FA34206D1DA
:104FD800EC431444E04201D0002BF3D11C46181BCB
:104FE80030BD104630BD034610B542B111F8014B33
:104FF800013A03F8014B002CF7D11A4400E010BD28
:10500800934202D003F8014BFAE710BD2DE9F047AF
:105018000F4680463F48D0F800903D4615F8014BB2
:1050280009EB0400407800F0080000F0FF0608B122
:105038002F46F2E72D2C03D1BD1C7C78012603E016
:105048002B2C04BF7C78BD1C13B1102B0AD15BE05C
:10505800302C57D1287800F0DF0058284DD16C78D3
:1050680010230235002E14BF4FF0004C6FF0004C97
:10507800BCFBF3FA0027384603FB1ACC09EB040EF5
:105088009EF801E01EF0040F01D0303C0BE01EF04A
:10509800030E1BD0BEF1010F0CBF4FF0370E4FF0BF
:1050A800570ECEEB0404A34210DDB7F1FF3F0AD040
:1050B800504506D801D1644503DC03FB00400127B5
:1050C80001E04FF0FF3715F8014BD7E77B1C0CD1F7
:1050D800002E4FF0220314BF4FF000406FF0004045
:1050E800C8F800302AB9BDE8F08706B1404272B16D
:1050F80007B1691E1160BDE8F0873024002BB1D1DB
:105108000823AFE70A23ADE7302CA3D0AAE7BDE810
:10511800F08700BF0C03002013460A4601460248E8
:105128000068FFF773BF00BF700300202DE9F04748
:105138000E4680463B48D0F80090354615F8014B9E
:1051480009EB0400407800F0080000F0FF0708B100
:105158002E46F2E72D2C03D1B51C7478012703E005
:105168002B2C04BF7478B51C13B1102B0AD153E053
:10517800302C4FD1287800F0DF00582845D16C78C2
:10518800102302354FF0FF3CBCFBF3FC03FB0CFA89
:1051980000266FEA0A0A304609EB040E9EF801E081
:1051A8001EF0040F01D0303C0BE01EF0030E1AD0A5
:1051B800BEF1010F0CBF4FF0370E4FF0570ECEEB7C
:1051C8000404A3420FDD002E08DB604506D801D198
:1051D800544503DC03FB0040012601E04FF0FF3695
:1051E80015F8014BD8E7002E07DA2223C8F800305B
:1051F8004FF0FF302AB9BDE8F08707B1404272B1DD
:1052080006B1691E1160BDE8F0873024002BB9D1C2
:105218000823B7E70A23B5E7302CABD0B2E7BDE8DF
:10522800F08700BF0C03002013460A4601460248D7
:105238000068FFF77BBF00BF700300202DE9F74F20
:10524800044600F06FFA40F2B1739C4240F3968036
:1052580040F26D156FF4F663E318A4F2B2729B1076
:1052680005FB0235A4F26D726FF0630392FBF3F352
:105278006FF4C8622B44A5184FF4C87294FBF2F778
:1052880095FBF2F502FB17471D44642394FBF3F6E4
:10529800B7FA87FE014603FB164600F1380301936F
:1052A80004F0030344604FEA5E1E00934FF0070CBE
:1052B8000B7A4A2B0ED14B69009AEC1802B906B941
:1052C80027B93B2BD4BF0023012300E0002323444C
:1052D800013B3FE0442B02D14B692B443AE0009B51
:1052E8002BB9002E0CBFF0464FF0010800E0F04645
:1052F800A946244B302202FB0838CC68A8F1040ADE
:105308000123A34204DA5AF804BF0133D944F8E769
:1053180009F1040393FBFCFBCBEBCB0ACAEB030AB2
:105328004B69012CB8BF0124B3EB0A0A0B6904F1DD
:10533800804403F1FF3304F1FF3448BF0AF1070A40
:10534800C3EBC30358F824405344A34201DB073B93
:10535800FBE74B448C690C4A02FB03430C6A234469
:1053680041F81C3F019B9942A2D1C369826B9342C9
:10537800ACBF002301230360012000E0002003B03C
:10538800BDE8F08F085D0A0880510100704770473A
:10539800014B186800F002B8700300202DE9F04FA7
:1053A8008DB0074600F0BEF9B0490446384600F013
:1053B800B1F9AF4E054660B9AE4BAF4A1860AF4B76
:1053C8001860AF4B30681A605A60FEF701F8356014
:1053D80048E1316879B93068FDF7FAFF2846FFF7E8
:1053E800E5FD411C3846FEF71BF8306048B12946F8
:1053F800FFF7D4FD05E0FFF7C7FD002800F0328174
:10540800E9E72B780AAE3A2B08BF013533469D4AA7
:105418009D492846FDF7ECFF002840F323810A9BAD
:10542800EF18EB5C2D2B03D101374FF0FF3503E06C
:105438002B2B08BF013701250DF1200A0DF11E0B9A
:105448004FF000080396CDF808A00196CDF800B0FB
:10545800334607AA8D493846ADF81E80ADF820803E
:10546800FDF7C6FF404540F3FD80BDF81E20BDF89E
:1054780020303C2101FB0233BDF81C204FF4616150
:1054880001FB02335D437F4B25627D4DDFF80892B7
:105498002B600A9B4A461F447B4933463846FDF732
:1054A800A7FF404508DC2B68226A6B60714B1A60C5
:1054B800724BC3F80080D5E00A9BC5F80490FD182C
:1054C800FB5C2D2B03D101354FF0FF3703E02B2B6D
:1054D80008BF013501270023ADF81C30ADF81E3098
:1054E800ADF820300A930396CDF808A00196CDF8C0
:1054F80000B0334607AA65492846FDF779FF00281A
:1055080004DC236AA3F56163E3630EE0BDF81E20A3
:10551800BDF820303C2101FB0233BDF81C204FF4BC
:10552800616101FB02335F43E76327460A9B4FF043
:1055380000091D442B782C2B08BF013595F80080F5
:10554800B8F14D0F26D10DF12603029309AB009354
:105558000396019633460DF122024D492846FDF780
:1055680047FF03287ED1BDF822104B1E0B2B79D89C
:10557800BDF82420531E042B74D8BDF82630062B02
:1055880070D887F80880F9603A617B610A9B05EB5F
:1055980003082AE0B8F14A0F06BF43460135442301
:1055A8000A220BA928460593FFF73EFEDDF82C805A
:1055B800ADF826004545059B14D14D23B9F1000FE0
:1055C80007D123720323E36002232361C4F81490F4
:1055D8000BE084F824300B23A3620123E362002349
:1055E800236302E080B23B7278610223ADF81C307D
:1055F8000023ADF81E30ADF820300A9398F800303B
:105608002F2B0BD10396CDF808A00196CDF800B04A
:10561800334607AA1F494046FDF7EAFEBDF81E209B
:10562800BDF820303C2101FB0233BDF81C204FF4AB
:10563800616101FB0233BB610A9D09F10109B9F1FE
:10564800020F454407F11C077FF474AF6068FFF749
:10565800F5FD226A074B1A60E36B9B1A074A18BFCD
:10566800012313600DB0BDE8F08F00BF685D0A0824
:10567800E4100020EC1000206B5D0A08E810002000
:1056880074030020D71000206F5D0A08925D0A0895
:105698007E5D0A08915D0A08CC1000202DE9F84FBC
:1056A80007468B46904600F0D7F8194B1D689A4676
:1056B8003DB15C46234613F8012B42B13D2A1C46F6
:1056C800F8D1384600F0C9F80020BDE8F88FCBEBD8
:1056D8000404A94659F8040B0028F2D0224659467A
:1056E800FFF76CFC88B959F8043C1E191B5D3D2B6B
:1056F8000BD1DAF800303846ED1AAD10C8F8005072
:1057080000F0ABF8701CBDE8F88F4D46E1E700BF2C
:10571800BC03002007B501AAFFF7C0FF03B05DF87E
:1057280004FB0000004870477C0300200268464BD9
:10573800F0B592FBF3F403FB1422002ABCBF02F578
:10574800A83202F5C0724FF4616092FBF0F300FBDF
:1057580013224FF03C008B6092FBF0F300FB132206
:1057680004F52F24ACBF04F66C2404F66B244B60BC
:105778000A600723E21C92FBF3F3344DC3EBC30327
:1057880094FBF5F5D31A48F6AC6240F2B4578B6136
:105798002F4B304803FB0544B4FBF2F2B4FBF7F39C
:1057A800B4FBF0F02244D21A48F69466131A40F279
:1057B8006D12B3FBF6F6B3FBF2F0B3FBF7F3344428
:1057C800E31A02FB103303EB830299240232B2FB83
:1057D800F4F25443A61C0524B6FBF4F40A2A34BF99
:1057E80002266FF0090616444FF4C87202FB05053D
:1057F8005F1C012E98BF0135B3F5997FA7EB04070D
:1058080002D3A3F5997214E0820705D16424B0FB92
:10581800F4F204FB12024AB94FF4C872B0FBF2F476
:1058280002FB1400B0FA80F2520900E001223B3377
:105838001A44A5F26C750023CA614D610E61CF60F0
:105848000B620846F0BD00BF80510100B13A02006A
:105858004FC5FDFFB03A0200704770471D000A08A7
:105868005D000A0889000A088D000A080000000087
:105878000000000000000000C9070A08000000003E
:105888000000000071070A0821080A0833080A08FE
:105898002D080A0864656661756C7420004D5342D2
:1058A800004C5342003C53504953657474696E6709
:1058B800732064656661756C743E003C53504953AF
:1058C800657474696E6773202573256C752025735C
:1058D800204D4F444525643E00454C5F4C4F4144A4
:1058E8005F4652414D45532E6373760023424D5314
:1058F800002C00434F4E4649472E74787400000030
:10590800E80300003C000000E8030000D0070000A6
:1059180028230000C8000000D0070000401F000036
:1059280070170000A00F0000C80000000000000071
:10593800737973743A72656D002A636C7300494E0B
:1059480050204F46460046554E433A4D4F44452059
:10595800464958004C4953543A52434C2032004669
:10596800554E433A4D4F4445204C49535400494EF7
:1059780050204F4E002A5452470046554E4320505F
:105988004F5700504F572025640A006770735F73A4
:10599800657269616C004750524D4300474E524D45
:1059A8004300475047474100474E474741004E4E46
:1059B8004500454E45004553450053534500535354
:1059C800570057535700574E57004E4E5700000088
:1059D800000000000000000039340A083B340A08BF
:1059E800000810182028303866006C6E00666E00BB
:1059F800636F64650064657461696C000D0A002555
:105A08003031307520005D20002564002C200028EE
:105A1800293A2000205B00636F6465203D20002543
:105A2800690064657461696C73203D20006261756A
:105A3800640053657269616C00555342536572691D
:105A4800616C31007479706500706172616D00631A
:105A58006D6400696400686E64007374726D00663A
:105A6800696C74006C766C0061646448616E646C87
:105A780065720072656D6F766548616E646C6572FB
:105A880000656E756D48616E646C657273004A538B
:105A98004F4E53747265616D4C6F6748616E646CEC
:105AA800657200617070006E6F6E6500747261637C
:105AB8006500696E666F007761726E006572726F5D
:105AC800720070616E696300616C6C00252B303365
